S01200004D50335F506C617965722E7372656376
S11300000C942A000C943F000C943F000C943F0085
S11300100C943F000C943F000C943F000C943F0060
S11300200C943F000C943F000C943F000C943F0050
S11300300C943F000C943F000C943F000C943F0040
S11300400C943F000C943F000C943F000C943F0030
S11300500C943F0011241FBECFE5D8E0DEBFCDBF16
S113006010E0A0E6B0E0E4EDF2E002C005900D92ED
S1130070AA36B107D9F70E9422010C9468010C94A6
S1130080000087E689B910BC549A539A80B58068F9
S113009080BD80B5826080BD80B5846080BD0895D8
S11300A05D9BFECF8CB90895CF92DF92EF92FF92C1
S11300B00F931F93CF93DF9301E010E0C0E0D0E0F3
S11300C00F2EF7E6EF2EF0E0FF2EF02D0F2EF8E6C0
S11300D0CF2EF0E0DF2EF02D02C01F5F0F5F8EEFFA
S11300E0800F863040F4E12FF0E0E05AFF4F80812A
S11300F0C80FD11D12C0173081F4882799278C1B93
S11301009D0BF7019083F6018083E12FF0E0E05A24
S1130110FF4F80810E945000E0CFE12FF0E0E05AD1
S1130120FF4F80810E9450000A30B8F2DF91CF91D6
S11301301F910F91FF90EF90DF90CF900895CF9390
S1130140DF930E944100C3E6D0E08CE088830E94E4
S1130150540018822FEF83ED90E3215080409040AB
S1130160E1F700C00000DF91CF910895EF92FF9274
S11301700F931F93CF93DF930F2EF3E6EF2EF0E050
S1130180FF2EF02D23E0F701208305E610E0F801AF
S11301909083C6E6D0E088830E945400F701108261
S11301A0F80110821882DF91CF911F910F91FF9077
S11301B0EF900895EF92FF920F931F93CF93DF93E5
S11301C00F2EF3E6EF2EF0E0FF2EF02D26E0F701E0
S11301D0208305E610E0F8019083C6E6D0E088832A
S11301E00E945400F7011082F80110821882DF91F6
S11301F0CF911F910F91FF90EF900895CF93DF93CC
S1130200C3E6D0E08EE088830E9454001882DF9118
S1130210CF910895CF93DF93C3E6D0E08DE0888338
S11302200E9454001882DF91CF910895CF93DF93F9
S1130230C3E6D0E081E088830E9454001882DF91F5
S1130240CF9108950E949F008EE190E00E94DA0011
S113025083E090E00E94B6002FEF33E284EF215058
S113026030408040E1F700C000000E94FE009FEF94
S11302702BE732E9915020403040E1F700C0000004
S11302800E940A018FEF93E224EF815090402040B6
S1130290E1F700C000000E9416013FEF83E294EFF3
S11302A0315080409040E1F700C000000E941601E8
S11302B08FE090E00E94DA002FEF39E582E692E0C9
S11302C02150304080409040D9F700C00000FFCF5B
S10702D0F894FFCFCC
S10D02D47EFF06000000000000EFAA
S9030000FC
